:03091700000000DD
:10080800021B0000410003004100020042000000FA
:10081800005000043F065B4F666D7D077F6F777C55
:0F082800395E7971480014FEFDFBF7EFDFBF7FEB
:0F08FC00D2A6120003C2A67F1A120007C2A722BB
:0C090B00C2A6120003D2A67F1A02000749
:1008CA00C2A67F1A120007120003C2A77F1A0200EB
:0108DA000716
:1008DB00D2A67F1A120007120003C2A77F1A0200CA
:0108EB000705
:1008B200D2A67F1A120007120003A2A69200C2A7B4
:0708C2007F1A120007A200DB
:0108C900220C
:0207A2008F15B1
:1007A400E4F516E51530E704D2A68002C2A67F1A46
:1007B400120007120003C2A77F1A120007E51525CD
:1007C400E0F5150516E516C3940840D71208B2E4FF
:0207D40033FFF1
:0107D6002200
:1007D700E4F516D2A6F515C2A77F1A120007120074
:1007E7000330A60FAF157480A807088002C313D87B
:1007F700FC42160515E515C3940840DBC2A7AF16E2
:0108070022CE
:04000300D2A77F1AE7
:03000700DFFE22F7
:04088C008F0F8D102D
:10089000E4F5111208FCE50F54FEFF1207A2BF0198
:1008A00002D322AF101207A2BF0102D32212090BFA
:0108B000C384
:0108B1002224
:0806BB008F0F8B108A118912C8
:1006C300E4F5141208FCE50F4401FF1207A2BF0171
:1006D30002D322E4F514E51314FFE514C39F501C61
:1006E3001207D7AB100512E512AA117002051114F7
:1006F300F9EF1202C91208CA051480DA1207D7AB40
:1007030010AA11A912EF1202C91208DB12090BC3B6
:0107130022C3
:0C083800FFE0FD120862C2867F147E0003
:10084400D3EF9400EE940040147D507C00ED1D70B5
:0D085400011CED4C70F7EF1F70E61E80E3F5
:010861002274
:02086200AC07E1
:10086400AF05EFFEAD04EDFFE4FDEE30E703D3800A
:1008740001C39287D284C284EF25E0FFEE33FE0DDC
:07088400BD10E7D285C2851B
:01088B00224A
:1003E0007B407A42790F7800AF1AAE19AD18AC177E
:1003F00012075EAC00AD01AE02AF037BA07A867936
:1004000001780012075E74042FF58274003EF583B4
:10041000E090001B120838D2867BA07A867901789A
:1004200000AF1AAE19AD18AC1712075EAC00AD01E3
:10043000AE02AF03E47B107A27F9F812075E74046A
:100440002FF58274003EF583E090001A120838D22E
:1004500086E47B107A27F9F8AF1AAE19AD18AC17FD
:1004600012075EAC00AD01AE02AF03E47BE87A0395
:10047000F9F812075E74042FF58274003EF583E0EC
:10048000FF900019120839D286E47BE87A03F9F864
:10049000AF1AAE19AD18AC1712075EAC00AD01AEC5
:1004A00002AF03E47B64FAF9F812075E74042FF5D7
:1004B0008274003EF583E0FF900018120839D2865E
:1004C000E47B64FAF9F8AF1AAE19AD18AC1712074D
:1004D0005EAC00AD01AE02AF03E47B0AFAF9F8129C
:1004E000075E74042FF58274003EF583E0FF9000F0
:1004F00017120839D286E47B0AFAF9F8AF1AAE1956
:10050000AD18AC1712075E74042BF58274003AF52F
:0C05100083E0FF900016120839D286220A
:10051C0078087C007D007BFF7A0979177E007F03C9
:10052C001202A31208EC7D9F7FD012088C1203E0FC
:10053C007B007A0079087513037FD01206BBE5089F
:10054C00FE3395E0750E008E0DF50CF50BE4FCFDFD
:10055C00FEE50E2509F50EEE350DF50DED350CF518
:10056C000CEC350BF50BAF0EAE0DAD0CFC78081288
:10057C0002FF8F0E8E0D8D0C8C0BE4FCFDFEE50E38
:10058C00250AF50EEE350DF50DED350CF50CEC35AB
:10059C000BF50BE4250EF50EE4350DF50DE50C34DD
:1005AC0002F50CE4350BF50BE4FF7D02AB0EAA0D46
:1005BC00A90CA80BD31202E95018C3E4950EF50E42
:1005CC00E4950DF50D7402950CF50CE4950BF50BFB
:1005DC00802CE4FFFE7D02FCAB0EAA0DA90CA80B2F
:1005EC00D31202E94018E50E9400F50EE50D9400C7
:1005FC00F50DE50C9402F50CE50B9400F50BAF0E24
:10060C00AE0DAD0CAC0BEC1201147BC37AF579F882
:10061C00783F12000E1201528F1A8E198D188C17FA
:03062C000205398B
:1008EC00758901758C3C758AAFD2AFD2A9D28C2296
:03000B00020714D5
:10071400C0E0C083C082C0D0758C3C758AAF051C14
:10072400E51C7002051B640A451B7025F51BF51CAE
:10073400900001E004F07006900000E004F09000E6
:1007440000E0B4270CA3E0B40F07900000E4F0A38A
:0A075400F0D0D0D082D083D0E03284
:10000E00EC4D6011E8497017ED33EC3304600DE4EC
:10001E00FCFFFEFD22E933E8330470F80201BE1244
:10002E00018958046009E4CC248150062850090245
:10003E0001C82840030201C5C0E0EB4A7044B980F4
:10004E0006D0E0FB0201B4EF4E701CBD8008EBFF42
:10005E00EAFEE9FD80EBE98DF0A4FEE5F00200F783
:10006E00E9CDF9EAFEEBFFEF89F0A4FCE5F0CE89CD
:10007E00F0A42EFFE435F0CD89F0A42DFEE435F08A
:10008E008067EF4E7005BD80D780C3EF8BF0A4ACB8
:10009E00F0EE8BF0A42CFCE435F0F8EF8AF0A42CF3
:1000AE00E5F038FCE433CB8DF0A42CFCE5F03BF806
:1000BE00EE8AF0A42CFCE5F038F8E433CF89F0A4F6
:1000CE002CFCE5F038CF3400CE89F0A42FFFE5F0FC
:1000DE003EFEE433C98DF0A42EFEE5F039CD8AF054
:1000EE00A42FFFE5F03EFEE43DFD33D0E0FB5007CC
:1000FE000BBB000F0201C8EC2CFCEF33FFEE33FEFE
:06010E00ED33FD0201A02B
:1001140075F020800E75F010800575F0087D007E66
:10012400007F003392D530D5031202DBEC3340104C
:10013400EF33FFEE33FEED33FDEC33FCD5F0ED226F
:0E014400E5F0247EA2D513CC92E7CDCEFF22AB
:10015200EDD2E7CD33EC3392D524814006E4FFFEA5
:10016200FDFC22FCE4CFCECDCC24E0501174FF8004
:10017200EDC3CC13CCCD13CDCE13CECF13CF0470A1
:07018200F030D5DE0202DBC4
:10018900E9D2E7C933E833F892D5EDD2E7CD33ECBC
:0701990033FC5002B2D52235
:1001A000EC30E7100FBF000C0EBE00080DBD0004C0
:1001B0000BEB6014A2D5EB13FCED92E7FD2274FF6C
:1001C000FCFDFEFF22E480F8A2D574FF13FC7D80C5
:0301D000E480EFD9
:0300000002062FC6
:0C062F00787FE4F6D8FD75812002067685
:1001D300E709F608DFFA8046E709F208DFFA803E0E
:1001E30088828C83E709F0A3DFFA8032E309F608FB
:1001F300DFFA8078E309F208DFFA807088828C8363
:10020300E309F0A3DFFA806489828A83E0A3F60816
:10021300DFFA805889828A83E0A3F208DFFA804CF0
:1002230080D280FA80C680D4806980F280338010C7
:1002330080A680EA809A80A880DA80E280CA803330
:1002430089828A83ECFAE493A3C8C582C8CCC583A8
:10025300CCF0A3C8C582C8CCC583CCDFE9DEE78078
:100263000D89828A83E493A3F608DFF9ECFAA9F0F7
:10027300EDFB2289828A83ECFAE0A3C8C582C8CC4D
:10028300C583CCF0A3C8C582C8CCC583CCDFEADE66
:10029300E880DB89828A83E493A3F208DFF980CCC8
:1002A30088F0EF60010E4E60C388F0ED2402B404C1
:1002B3000050B9F582EB2402B4040050AF23234568
:0602C30082239002237368
:1002C900BB010689828A83F0225002F722BBFE0114
:0202D900F3220E
:10075E00C2D5E830E70FB2D5E4C39BFBE49AFAE4C6
:10076E0099F9E498F8EC30E717B2D5120794120312
:10077E004EE4C39BFBE49AFAE499F9E498F88003FB
:10078E0012034E30D50DE4C39FFFE49EFEE49DFDA3
:04079E00E49CFC22B9
:0E02DB00C3E49FFFE49EFEE49DFDE49CFC2234
:1002E900EB9FF5F0EA9E42F0E99D42F0EC6480C88C
:0602F90064809845F0222C
:1002FF00E8600FEFC333FFEE33FEED33FDEC33FC5D
:03030F00D8F12200
:10063B0002051CE493A3F8E493A34003F68001F2B4
:10064B0008DFF48029E493A3F85407240CC8C333C0
:10065B00C4540F4420C8834004F456800146F6DF8F
:10066B00E4800B0102040810204080900808E47E0F
:10067B00019360BCA3FF543F30E509541FFEE49384
:10068B00A360010ECF54C025E060A840B8E493A34B
:10069B00FAE493A3F8E493A3C8C582C8CAC583CA76
:1006AB00F0A3C8C582C8CAC583CADFE9DEE780BE2E
:0108370000C0
:1003120075F008758200EF2FFFEE33FECD33CDCCA2
:1003220033CCC58233C5829BED9AEC99E582984025
:100332000CF582EE9BFEED9AFDEC99FC0FD5F0D602
:10034200E4CEFBE4CDFAE4CCF9A88222B800C1B92C
:100352000059BA002DEC8BF084CFCECDFCE5F0CB6A
:10036200F97818EF2FFFEE33FEED33FDEC33FCEBA3
:1003720033FB10D703994004EB99FB0FD8E5E4F95E
:10038200FA227818EF2FFFEE33FEED33FDEC33FC4B
:10039200C933C910D7059BE99A4007EC9BFCE99A3F
:1003A200F90FD8E0E4C9FAE4CCFB2275F010EF2F84
:1003B200FFEE33FEED33FDCC33CCC833C810D70784
:1003C2009BEC9AE899400AED9BFDEC9AFCE899F8BF
:0E03D2000FD5F0DAE4CDFBE4CCFAE4C8F92252
:00000001FF
